{
  "_format": "hh-sol-artifact-1",
  "contractName": "portalContract",
  "sourceName": "contracts/portalContract.sol",
  "abi": [
    {
      "inputs": [
        {
          "internalType": "address",
          "name": "_to",
          "type": "address"
        }
      ],
      "stateMutability": "nonpayable",
      "type": "constructor"
    },
    {
      "inputs": [],
      "name": "getAllHistory",
      "outputs": [
        {
          "components": [
            {
              "internalType": "string",
              "name": "fullName",
              "type": "string"
            },
            {
              "internalType": "address",
              "name": "wallet",
              "type": "address"
            },
            {
              "internalType": "string",
              "name": "telegram",
              "type": "string"
            },
            {
              "internalType": "string",
              "name": "twitter",
              "type": "string"
            },
            {
              "internalType": "uint256",
              "name": "amount",
              "type": "uint256"
            },
            {
              "internalType": "string",
              "name": "txn",
              "type": "string"
            }
          ],
          "internalType": "struct portalContract.HistoryInfo[]",
          "name": "",
          "type": "tuple[]"
        }
      ],
      "stateMutability": "view",
      "type": "function"
    },
    {
      "inputs": [
        {
          "internalType": "string",
          "name": "_txn",
          "type": "string"
        }
      ],
      "name": "putNewHistory",
      "outputs": [],
      "stateMutability": "nonpayable",
      "type": "function"
    },
    {
      "inputs": [
        {
          "internalType": "string",
          "name": "_fullName",
          "type": "string"
        },
        {
          "internalType": "string",
          "name": "_telName",
          "type": "string"
        },
        {
          "internalType": "string",
          "name": "_twiName",
          "type": "string"
        }
      ],
      "name": "transfer",
      "outputs": [],
      "stateMutability": "payable",
      "type": "function"
    }
  ],
  "bytecode": "0x60806040526000600760006101000a81548160ff021916908360ff16021790555034801561002c57600080fd5b5060405162000fef38038062000fef833981810160405281019061005091906100fa565b80600760016101000a81548173ffffffffffffffffffffffffffffffffffffffff021916908373ffffffffffffffffffffffffffffffffffffffff16021790555050610127565b600080fd5b600073ffffffffffffffffffffffffffffffffffffffff82169050919050565b60006100c78261009c565b9050919050565b6100d7816100bc565b81146100e257600080fd5b50565b6000815190506100f4816100ce565b92915050565b6000602082840312156101105761010f610097565b5b600061011e848285016100e5565b91505092915050565b610eb880620001376000396000f3fe6080604052600436106100345760003560e01c806339c5891a14610039578063b8510edb14610064578063f3f399b214610080575b600080fd5b34801561004557600080fd5b5061004e6100a9565b60405161005b919061084b565b60405180910390f35b61007e600480360381019061007991906109b6565b6103b0565b005b34801561008c57600080fd5b506100a760048036038101906100a29190610a5d565b6104c0565b005b60606000805480602002602001604051908101604052809291908181526020016000905b828210156103a757838290600052602060002090600602016040518060c001604052908160008201805461010090610ad5565b80601f016020809104026020016040519081016040528092919081815260200182805461012c90610ad5565b80156101795780601f1061014e57610100808354040283529160200191610179565b820191906000526020600020905b81548152906001019060200180831161015c57829003601f168201915b505050505081526020016001820160009054906101000a900473ffffffffffffffffffffffffffffffffffffffff1673ffffffffffffffffffffffffffffffffffffffff1673ffffffffffffffffffffffffffffffffffffffff1681526020016002820180546101e890610ad5565b80601f016020809104026020016040519081016040528092919081815260200182805461021490610ad5565b80156102615780601f1061023657610100808354040283529160200191610261565b820191906000526020600020905b81548152906001019060200180831161024457829003601f168201915b5050505050815260200160038201805461027a90610ad5565b80601f01602080910402602001604051908101604052809291908181526020018280546102a690610ad5565b80156102f35780601f106102c8576101008083540402835291602001916102f3565b820191906000526020600020905b8154815290600101906020018083116102d657829003601f168201915b505050505081526020016004820154815260200160058201805461031690610ad5565b80601f016020809104026020016040519081016040528092919081815260200182805461034290610ad5565b801561038f5780601f106103645761010080835404028352916020019161038f565b820191906000526020600020905b81548152906001019060200180831161037257829003601f168201915b505050505081525050815260200190600101906100cd565b50505050905090565b600760019054906101000a900473ffffffffffffffffffffffffffffffffffffffff1673ffffffffffffffffffffffffffffffffffffffff166108fc349081150290604051600060405180830381858888f19350505050158015610418573d6000803e3d6000fd5b50826001600001908161042b9190610cb2565b50336001800160006101000a81548173ffffffffffffffffffffffffffffffffffffffff021916908373ffffffffffffffffffffffffffffffffffffffff16021790555081600160020190816104819190610cb2565b5080600160030190816104949190610cb2565b50346001600401819055506001600760006101000a81548160ff021916908360ff160217905550505050565b6001600760009054906101000a900460ff1660ff16036105fe5780600160050190816104ec9190610cb2565b506000600190806001815401808255809150506001900390600052602060002090600602016000909190919091506000820181600001908161052e9190610d9a565b506001820160009054906101000a900473ffffffffffffffffffffffffffffffffffffffff168160010160006101000a81548173ffffffffffffffffffffffffffffffffffffffff021916908373ffffffffffffffffffffffffffffffffffffffff160217905550600282018160020190816105aa9190610d9a565b50600382018160030190816105bf9190610d9a565b5060048201548160040155600582018160050190816105de9190610d9a565b5050506000600760006101000a81548160ff021916908360ff1602179055505b50565b600081519050919050565b600082825260208201905092915050565b6000819050602082019050919050565b600081519050919050565b600082825260208201905092915050565b60005b8381101561066757808201518184015260208101905061064c565b60008484015250505050565b6000601f19601f8301169050919050565b600061068f8261062d565b6106998185610638565b93506106a9818560208601610649565b6106b281610673565b840191505092915050565b600073ffffffffffffffffffffffffffffffffffffffff82169050919050565b60006106e8826106bd565b9050919050565b6106f8816106dd565b82525050565b6000819050919050565b610711816106fe565b82525050565b600060c08301600083015184820360008601526107348282610684565b915050602083015161074960208601826106ef565b50604083015184820360408601526107618282610684565b9150506060830151848203606086015261077b8282610684565b91505060808301516107906080860182610708565b5060a083015184820360a08601526107a88282610684565b9150508091505092915050565b60006107c18383610717565b905092915050565b6000602082019050919050565b60006107e182610601565b6107eb818561060c565b9350836020820285016107fd8561061d565b8060005b85811015610839578484038952815161081a85826107b5565b9450610825836107c9565b925060208a01995050600181019050610801565b50829750879550505050505092915050565b6000602082019050818103600083015261086581846107d6565b905092915050565b6000604051905090565b600080fd5b600080fd5b600080fd5b600080fd5b7f4e487b7100000000000000000000000000000000000000000000000000000000600052604160045260246000fd5b6108c382610673565b810181811067ffffffffffffffff821117156108e2576108e161088b565b5b80604052505050565b60006108f561086d565b905061090182826108ba565b919050565b600067ffffffffffffffff8211156109215761092061088b565b5b61092a82610673565b9050602081019050919050565b82818337600083830152505050565b600061095961095484610906565b6108eb565b90508281526020810184848401111561097557610974610886565b5b610980848285610937565b509392505050565b600082601f83011261099d5761099c610881565b5b81356109ad848260208601610946565b91505092915050565b6000806000606084860312156109cf576109ce610877565b5b600084013567ffffffffffffffff8111156109ed576109ec61087c565b5b6109f986828701610988565b935050602084013567ffffffffffffffff811115610a1a57610a1961087c565b5b610a2686828701610988565b925050604084013567ffffffffffffffff811115610a4757610a4661087c565b5b610a5386828701610988565b9150509250925092565b600060208284031215610a7357610a72610877565b5b600082013567ffffffffffffffff811115610a9157610a9061087c565b5b610a9d84828501610988565b91505092915050565b7f4e487b7100000000000000000000000000000000000000000000000000000000600052602260045260246000fd5b60006002820490506001821680610aed57607f821691505b602082108103610b0057610aff610aa6565b5b50919050565b60008190508160005260206000209050919050565b60006020601f8301049050919050565b600082821b905092915050565b600060088302610b687fffffffffffffffffffffffffffffffffffffffffffffffffffffffffffffffff82610b2b565b610b728683610b2b565b95508019841693508086168417925050509392505050565b6000819050919050565b6000610baf610baa610ba5846106fe565b610b8a565b6106fe565b9050919050565b6000819050919050565b610bc983610b94565b610bdd610bd582610bb6565b848454610b38565b825550505050565b600090565b610bf2610be5565b610bfd818484610bc0565b505050565b5b81811015610c2157610c16600082610bea565b600181019050610c03565b5050565b601f821115610c6657610c3781610b06565b610c4084610b1b565b81016020851015610c4f578190505b610c63610c5b85610b1b565b830182610c02565b50505b505050565b600082821c905092915050565b6000610c8960001984600802610c6b565b1980831691505092915050565b6000610ca28383610c78565b9150826002028217905092915050565b610cbb8261062d565b67ffffffffffffffff811115610cd457610cd361088b565b5b610cde8254610ad5565b610ce9828285610c25565b600060209050601f831160018114610d1c5760008415610d0a578287015190505b610d148582610c96565b865550610d7c565b601f198416610d2a86610b06565b60005b82811015610d5257848901518255600182019150602085019450602081019050610d2d565b86831015610d6f5784890151610d6b601f891682610c78565b8355505b6001600288020188555050505b505050505050565b600081549050610d9381610ad5565b9050919050565b818103610da8575050610e80565b610db182610d84565b67ffffffffffffffff811115610dca57610dc961088b565b5b610dd48254610ad5565b610ddf828285610c25565b6000601f831160018114610e0e5760008415610dfc578287015490505b610e068582610c96565b865550610e79565b601f198416610e1c87610b06565b9650610e2786610b06565b60005b82811015610e4f57848901548255600182019150600185019450602081019050610e2a565b86831015610e6c5784890154610e68601f891682610c78565b8355505b6001600288020188555050505b5050505050505b56fea2646970667358221220774242e59e2f8f70313afad36be9ee0be76c01199e6a9a34da19aece44c33a4664736f6c63430008110033",
  "linkReferences": {},
  "deployedLinkReferences": {}
}